{
  "contractName": "CrowdfundingFactory",
  "abi": [
    {
      "anonymous": false,
      "inputs": [
        {
          "indexed": false,
          "internalType": "address",
          "name": "contractAddress",
          "type": "address"
        },
        {
          "indexed": false,
          "internalType": "address",
          "name": "projectStarter",
          "type": "address"
        },
        {
          "indexed": false,
          "internalType": "string",
          "name": "projectTitle",
          "type": "string"
        },
        {
          "indexed": false,
          "internalType": "string",
          "name": "projectDescription",
          "type": "string"
        },
        {
          "indexed": false,
          "internalType": "string",
          "name": "projectCategory",
          "type": "string"
        },
        {
          "indexed": false,
          "internalType": "uint256",
          "name": "deadline",
          "type": "uint256"
        },
        {
          "indexed": false,
          "internalType": "uint256",
          "name": "goalAmount",
          "type": "uint256"
        }
      ],
      "name": "ProjectStarted",
      "type": "event"
    },
    {
      "constant": false,
      "inputs": [
        {
          "internalType": "string",
          "name": "title",
          "type": "string"
        },
        {
          "internalType": "string",
          "name": "description",
          "type": "string"
        },
        {
          "internalType": "string",
          "name": "category",
          "type": "string"
        },
        {
          "internalType": "uint256",
          "name": "durationInDays",
          "type": "uint256"
        },
        {
          "internalType": "uint256",
          "name": "amountToRaise",
          "type": "uint256"
        }
      ],
      "name": "startProject",
      "outputs": [],
      "payable": false,
      "stateMutability": "nonpayable",
      "type": "function"
    },
    {
      "constant": true,
      "inputs": [],
      "name": "returnAllProjects",
      "outputs": [
        {
          "internalType": "contract Project[]",
          "name": "",
          "type": "address[]"
        }
      ],
      "payable": false,
      "stateMutability": "view",
      "type": "function"
    }
  ],
  "bytecode": "0x608060405234801561001057600080fd5b506119a3806100206000396000f3fe608060405234801561001057600080fd5b50600436106100365760003560e01c806385b6e28e1461003b578063dc20500b1461009a575b600080fd5b6100436101d1565b6040518080602001828103825283818151815260200191508051906020019060200280838360005b8381101561008657808201518184015260208101905061006b565b505050509050019250505060405180910390f35b6101cf600480360360a08110156100b057600080fd5b81019080803590602001906401000000008111156100cd57600080fd5b8201836020820111156100df57600080fd5b8035906020019184600183028401116401000000008311171561010157600080fd5b90919293919293908035906020019064010000000081111561012257600080fd5b82018360208201111561013457600080fd5b8035906020019184600183028401116401000000008311171561015657600080fd5b90919293919293908035906020019064010000000081111561017757600080fd5b82018360208201111561018957600080fd5b803590602001918460018302840111640100000000831117156101ab57600080fd5b9091929391929390803590602001909291908035906020019092919050505061025f565b005b6060600080548060200260200160405190810160405280929190818152602001828054801561025557602002820191906000526020600020905b8160009054906101000a900473ffffffffffffffffffffffffffffffffffffffff1673ffffffffffffffffffffffffffffffffffffffff168152602001906001019080831161020b575b5050505050905090565b6000620151808302420190506000338a8a8a8a8a8a888a60405161028290610530565b808a73ffffffffffffffffffffffffffffffffffffffff1673ffffffffffffffffffffffffffffffffffffffff16815260200180602001806020018060200186815260200185815260200184810384528c8c82818152602001925080828437600081840152601f19601f82011690508083019250505084810383528a8a82818152602001925080828437600081840152601f19601f8201169050808301925050508481038252888882818152602001925080828437600081840152601f19601f8201169050808301925050509c50505050505050505050505050604051809103906000f080158015610378573d6000803e3d6000fd5b50905060008190806001815401808255809150509060018203906000526020600020016000909192909190916101000a81548173ffffffffffffffffffffffffffffffffffffffff021916908373ffffffffffffffffffffffffffffffffffffffff160217905550507fc317f13e51fbbe0e6c97f372f8607e3fc3d532c0f8a7a894dd38fba96f2a284c81338c8c8c8c8c8c8a8c604051808b73ffffffffffffffffffffffffffffffffffffffff1673ffffffffffffffffffffffffffffffffffffffff1681526020018a73ffffffffffffffffffffffffffffffffffffffff1673ffffffffffffffffffffffffffffffffffffffff16815260200180602001806020018060200186815260200185815260200184810384528c8c82818152602001925080828437600081840152601f19601f82011690508083019250505084810383528a8a82818152602001925080828437600081840152601f19601f8201169050808301925050508481038252888882818152602001925080828437600081840152601f19601f8201169050808301925050509d505050505050505050505050505060405180910390a150505050505050505050565b6114318061053e8339019056fe60806040526000600860006101000a81548160ff021916908360028111156200002457fe5b02179055503480156200003657600080fd5b506040516200143138038062001431833981810160405260c08110156200005c57600080fd5b8101908080519060200190929190805160405193929190846401000000008211156200008757600080fd5b838201915060208201858111156200009e57600080fd5b8251866001820283011164010000000082111715620000bc57600080fd5b8083526020830192505050908051906020019080838360005b83811015620000f2578082015181840152602081019050620000d5565b50505050905090810190601f168015620001205780820380516001836020036101000a031916815260200191505b50604052602001805160405193929190846401000000008211156200014457600080fd5b838201915060208201858111156200015b57600080fd5b82518660018202830111640100000000821117156200017957600080fd5b8083526020830192505050908051906020019080838360005b83811015620001af57808201518184015260208101905062000192565b50505050905090810190601f168015620001dd5780820380516001836020036101000a031916815260200191505b50604052602001805160405193929190846401000000008211156200020157600080fd5b838201915060208201858111156200021857600080fd5b82518660018202830111640100000000821117156200023657600080fd5b8083526020830192505050908051906020019080838360005b838110156200026c5780820151818401526020810190506200024f565b50505050905090810190601f1680156200029a5780820380516001836020036101000a031916815260200191505b506040526020018051906020019092919080519060200190929190505050856000806101000a81548173ffffffffffffffffffffffffffffffffffffffff021916908373ffffffffffffffffffffffffffffffffffffffff16021790555084600590805190602001906200031092919062000365565b5083600690805190602001906200032992919062000365565b5082600790805190602001906200034292919062000365565b508060018190555081600481905550600060038190555050505050505062000414565b828054600181600116156101000203166002900490600052602060002090601f016020900481019282601f10620003a857805160ff1916838001178555620003d9565b82800160010185558215620003d9579182015b82811115620003d8578251825591602001919060010190620003bb565b5b509050620003e89190620003ec565b5090565b6200041191905b808211156200040d576000816000905550600101620003f3565b5090565b90565b61100d80620004246000396000f3fe6080604052600436106100dd5760003560e01c806386f325861161007f578063ce845d1d11610059578063ce845d1d146103be578063d7bb99ba146103e9578063ef430aa6146103f3578063fbbf93a014610483576100dd565b806386f325861461033f578063b2d5ae4414610356578063c19d93fb14610385576100dd565b806342e94c90116100bb57806342e94c901461018f5780634a79d50c146101f45780634c4cea5a146102845780637284e416146102af576100dd565b806302d05d3f146100e25780630785001c1461013957806337f944cc14610164575b600080fd5b3480156100ee57600080fd5b506100f7610648565b604051808273ffffffffffffffffffffffffffffffffffffffff1673ffffffffffffffffffffffffffffffffffffffff16815260200191505060405180910390f35b34801561014557600080fd5b5061014e61066d565b6040518082815260200191505060405180910390f35b34801561017057600080fd5b50610179610673565b6040518082815260200191505060405180910390f35b34801561019b57600080fd5b506101de600480360360208110156101b257600080fd5b81019080803573ffffffffffffffffffffffffffffffffffffffff169060200190929190505050610679565b6040518082815260200191505060405180910390f35b34801561020057600080fd5b50610209610691565b6040518080602001828103825283818151815260200191508051906020019080838360005b8381101561024957808201518184015260208101905061022e565b50505050905090810190601f1680156102765780820380516001836020036101000a031916815260200191505b509250505060405180910390f35b34801561029057600080fd5b5061029961072f565b6040518082815260200191505060405180910390f35b3480156102bb57600080fd5b506102c4610735565b6040518080602001828103825283818151815260200191508051906020019080838360005b838110156103045780820151818401526020810190506102e9565b50505050905090810190601f1680156103315780820380516001836020036101000a031916815260200191505b509250505060405180910390f35b34801561034b57600080fd5b506103546107d3565b005b34801561036257600080fd5b5061036b610849565b604051808215151515815260200191505060405180910390f35b34801561039157600080fd5b5061039a6109ef565b604051808260028111156103aa57fe5b60ff16815260200191505060405180910390f35b3480156103ca57600080fd5b506103d3610a02565b6040518082815260200191505060405180910390f35b6103f1610a08565b005b3480156103ff57600080fd5b50610408610ba5565b6040518080602001828103825283818151815260200191508051906020019080838360005b8381101561044857808201518184015260208101905061042d565b50505050905090810190601f1680156104755780820380516001836020036101000a031916815260200191505b509250505060405180910390f35b34801561048f57600080fd5b50610498610c43565b604051808973ffffffffffffffffffffffffffffffffffffffff1673ffffffffffffffffffffffffffffffffffffffff1681526020018060200180602001806020018881526020018760028111156104ec57fe5b60ff16815260200186815260200185815260200184810384528b818151815260200191508051906020019080838360005b8381101561053857808201518184015260208101905061051d565b50505050905090810190601f1680156105655780820380516001836020036101000a031916815260200191505b5084810383528a818151815260200191508051906020019080838360005b8381101561059e578082015181840152602081019050610583565b50505050905090810190601f1680156105cb5780820380516001836020036101000a031916815260200191505b50848103825289818151815260200191508051906020019080838360005b838110156106045780820151818401526020810190506105e9565b50505050905090810190601f1680156106315780820380516001836020036101000a031916815260200191505b509b50505050505050505050505060405180910390f35b6000809054906101000a900473ffffffffffffffffffffffffffffffffffffffff1681565b60015481565b60045481565b60096020528060005260406000206000915090505481565b60058054600181600116156101000203166002900480601f0160208091040260200160405190810160405280929190818152602001828054600181600116156101000203166002900480156107275780601f106106fc57610100808354040283529160200191610727565b820191906000526020600020905b81548152906001019060200180831161070a57829003601f168201915b505050505081565b60025481565b60068054600181600116156101000203166002900480601f0160208091040260200160405190810160405280929190818152602001828054600181600116156101000203166002900480156107cb5780601f106107a0576101008083540402835291602001916107cb565b820191906000526020600020905b8154815290600101906020018083116107ae57829003601f168201915b505050505081565b60015460035410610810576002600860006101000a81548160ff021916908360028111156107fd57fe5b021790555061080a610e76565b50610840565b60045442111561083f576001600860006101000a81548160ff0219169083600281111561083957fe5b02179055505b5b42600281905550565b6000600180600281111561085957fe5b600860009054906101000a900460ff16600281111561087457fe5b1461087e57600080fd5b6000600960003373ffffffffffffffffffffffffffffffffffffffff1673ffffffffffffffffffffffffffffffffffffffff16815260200190815260200160002054116108ca57600080fd5b6000600960003373ffffffffffffffffffffffffffffffffffffffff1673ffffffffffffffffffffffffffffffffffffffff1681526020019081526020016000205490506000600960003373ffffffffffffffffffffffffffffffffffffffff1673ffffffffffffffffffffffffffffffffffffffff168152602001908152602001600020819055503373ffffffffffffffffffffffffffffffffffffffff166108fc829081150290604051600060405180830381858888f193505050506109da5780600960003373ffffffffffffffffffffffffffffffffffffffff1673ffffffffffffffffffffffffffffffffffffffff1681526020019081526020016000208190555060009250506109eb565b806003540360038190555060019250505b5090565b600860009054906101000a900460ff1681565b60035481565b6000806002811115610a1657fe5b600860009054906101000a900460ff166002811115610a3157fe5b14610a3b57600080fd5b6000809054906101000a900473ffffffffffffffffffffffffffffffffffffffff1673ffffffffffffffffffffffffffffffffffffffff163373ffffffffffffffffffffffffffffffffffffffff161415610a9557600080fd5b34600960003373ffffffffffffffffffffffffffffffffffffffff1673ffffffffffffffffffffffffffffffffffffffff1681526020019081526020016000205401600960003373ffffffffffffffffffffffffffffffffffffffff1673ffffffffffffffffffffffffffffffffffffffff1681526020019081526020016000208190555034600354016003819055507f5cdc4ab8d637538ead6cc1904d4160343656c8c82bd266635cfd31ac008fffe03334600354604051808473ffffffffffffffffffffffffffffffffffffffff1673ffffffffffffffffffffffffffffffffffffffff168152602001838152602001828152602001935050505060405180910390a1610ba26107d3565b50565b60078054600181600116156101000203166002900480601f016020809104026020016040519081016040528092919081815260200182805460018160011615610100020316600290048015610c3b5780601f10610c1057610100808354040283529160200191610c3b565b820191906000526020600020905b815481529060010190602001808311610c1e57829003601f168201915b505050505081565b600060608060606000806000806000809054906101000a900473ffffffffffffffffffffffffffffffffffffffff16975060058054600181600116156101000203166002900480601f016020809104026020016040519081016040528092919081815260200182805460018160011615610100020316600290048015610d0a5780601f10610cdf57610100808354040283529160200191610d0a565b820191906000526020600020905b815481529060010190602001808311610ced57829003601f168201915b5050505050965060068054600181600116156101000203166002900480601f016020809104026020016040519081016040528092919081815260200182805460018160011615610100020316600290048015610da75780601f10610d7c57610100808354040283529160200191610da7565b820191906000526020600020905b815481529060010190602001808311610d8a57829003601f168201915b5050505050955060078054600181600116156101000203166002900480601f016020809104026020016040519081016040528092919081815260200182805460018160011615610100020316600290048015610e445780601f10610e1957610100808354040283529160200191610e44565b820191906000526020600020905b815481529060010190602001808311610e2757829003601f168201915b505050505094506004549350600860009054906101000a900460ff169250600354915060015490509091929394959697565b60006002806002811115610e8657fe5b600860009054906101000a900460ff166002811115610ea157fe5b14610eab57600080fd5b6000600354905060006003819055506000809054906101000a900473ffffffffffffffffffffffffffffffffffffffff1673ffffffffffffffffffffffffffffffffffffffff166108fc829081150290604051600060405180830381858888f1935050505015610fa3577f2f256415efc8561af8db667cb242964b19be7380f379ccdafaa0e54a6f6b70696000809054906101000a900473ffffffffffffffffffffffffffffffffffffffff16604051808273ffffffffffffffffffffffffffffffffffffffff1673ffffffffffffffffffffffffffffffffffffffff16815260200191505060405180910390a16001925050610fd4565b806003819055506002600860006101000a81548160ff02191690836002811115610fc957fe5b021790555060009250505b509056fea265627a7a72315820e670ed9aa31137f1566e24e34d4fdcd20442b8a4c84712397c8ba56c86d7b5c364736f6c63430005100032a265627a7a72315820dd3cb9d9ddf2d353519f184c0ea068da49538fa9f0b65d5c7973406b7ec7293264736f6c63430005100032",
  "source": "pragma solidity >=0.4.21 <0.7.0;\r\nimport \"./Project.sol\";\r\n\r\ncontract CrowdfundingFactory {\r\n    // List of existing projects\r\n    Project[] private projects;\r\n\r\n    // Event that will be emitted whenever a new project is started\r\n    event ProjectStarted(\r\n        address contractAddress,\r\n        address projectStarter,\r\n        string projectTitle,\r\n        string projectDescription,\r\n        string projectCategory,\r\n        uint256 deadline,\r\n        uint256 goalAmount\r\n    );\r\n\r\n    /** @dev Function to start a new project.\r\n     * @param title Title of the project to be created\r\n     * @param description Brief description about the project\r\n     * @param durationInDays Project deadline in days\r\n     * @param amountToRaise Project goal in wei\r\n     */\r\n    function startProject(\r\n        string calldata title,\r\n        string calldata description,\r\n        string calldata category,\r\n        uint256 durationInDays,\r\n        uint256 amountToRaise\r\n    ) external {\r\n        uint256 raiseUntil = now + (durationInDays * 1 days);\r\n        Project newProject = new Project(\r\n            msg.sender,\r\n            title,\r\n            description,\r\n            category,\r\n            raiseUntil,\r\n            amountToRaise\r\n        );\r\n        projects.push(newProject);\r\n        emit ProjectStarted(\r\n            address(newProject),\r\n            msg.sender,\r\n            title,\r\n            description,\r\n            category,\r\n            raiseUntil,\r\n            amountToRaise\r\n        );\r\n    }\r\n\r\n    /** @dev Function to get all projects' contract addresses.\r\n     * @return A list of all projects' contract addreses\r\n     */\r\n    function returnAllProjects() external view returns (Project[] memory) {\r\n        return projects;\r\n    }\r\n}\r\n",
  "sourcePath": "C:/Users/nithi/Desktop/crypto-kickstarter/contracts/CrowdfundingFactory.sol",
  "compiler": {
    "name": "solc",
    "version": "0.5.16+commit.9c3226ce.Emscripten.clang"
  },
  "schemaVersion": "3.3.1",
  "updatedAt": "2020-11-01T00:48:41.617Z",
  "networkType": "ethereum",
  "devdoc": {
    "methods": {
      "returnAllProjects()": {
        "details": "Function to get all projects' contract addresses.",
        "return": "A list of all projects' contract addreses"
      },
      "startProject(string,string,string,uint256,uint256)": {
        "details": "Function to start a new project.",
        "params": {
          "amountToRaise": "Project goal in wei",
          "description": "Brief description about the project",
          "durationInDays": "Project deadline in days",
          "title": "Title of the project to be created"
        }
      }
    }
  },
  "userdoc": {
    "methods": {}
  }
}